:1000D3000808182422111122241808107FBFDFEF0B
:0400E300F7FBFDFE2C
:0B00E800EF1FAC0670011E4C70F622EA
:10008F00C2B6C2B5E4FEEFC4131313540124FF929A
:10009F00B4EF25E0FFD2B6C2B60EBE08E9D2B5C2A4
:0100AF00B59B
:0100B000222D
:1000B100E4FD74082DF8E6FF12008F74102DF8E6A8
:1000C100F5807F647E001200E87580FF0DBD08E2B7
:0200D10080DECF
:03000000020003F8
:0C000300787FE4F6D8FD75811702004AF2
:10000F000200B1E493A3F8E493A34003F68001F256
:10001F0008DFF48029E493A3F85407240CC8C333F2
:10002F00C4540F4420C8834004F456800146F6DFC1
:10003F00E4800B01020408102040809000D3E47E7E
:10004F00019360BCA3FF543F30E509541FFEE493B6
:10005F00A360010ECF54C025E060A840B8E493A37D
:10006F00FAE493A3F8E493A3C8C582C8CAC583CAA8
:10007F00F0A3C8C582C8CAC583CADFE9DEE780BE60
:0100E7000018
:00000001FF
