:100189003F065B4F666D7D077F6F065B4F666D7D32
:0901A400010C01010D00010E0027
:0B019900EF1FAC0670011E4C70F62238
:10017900758901758CFC758A18D2A9D2AFD28C22E7
:1001660020B10F7F647E0012019920B1051201793A
:0301760080FE22E6
:03000B0002000EE2
:10000E00C0E0C083C082C0D075D000C004C006C09E
:01001E0007DA
:10001F00758CFC758A18050BE50B7002050A64E8F0
:10002F007004E50A640370300509E50970020508DC
:10003F00C2A2C2A3C2A4750A00750B00E50C900101
:10004F008993F580050CE50CB40A03750C00050EB9
:10005F00E50EB40A03750E00D3E509940AE508947A
:10006F00005008E509640A45087051E5087024E559
:10007F000924E2601124F6601224F66013241E7026
:10008F0012750D01800D750D028008750D0380032B
:10009F00750D04758000C2A2C2A3C2A4E50E900123
:1000AF008993F5807F647E00120199758000D2A23A
:0C00BF00C2A3C2A4E50D90019393F5804C
:0F00CB00D007D006D004D0D0D082D083D0E0327E
:030000000200DA21
:0C00DA00787FE4F6D8FD75810E0201214C
:1000E600020166E493A3F8E493A34003F68001F2C9
:1000F60008DFF48029E493A3F85407240CC8C3331B
:10010600C4540F4420C8834004F456800146F6DFE9
:10011600E4800B01020408102040809001A4E47ED4
:10012600019360BCA3FF543F30E509541FFEE493DE
:10013600A360010ECF54C025E060A840B8E493A3A5
:10014600FAE493A3F8E493A3C8C582C8CAC583CAD0
:10015600F0A3C8C582C8CAC583CADFE9DEE780BE88
:0101AD000051
:00000001FF
