:10008C003F065B4F666D7D077F6F777C395E7971BC
:0B00A800EF1FAC0670011E4C70F6222A
:1000030075900FE590640F606C7FE87E031200A883
:10001300E590640F605F75900FAF90EF24F560106B
:1000230024FE601114601324077012E4F508800D98
:10003300750801800875080280037508037590F040
:10004300AF90EF2450601124E0601124F06011247C
:10005300707013850808800E74048006740880028B
:10006300740C2508F508E59064F060097FE87E03C9
:060073001200A880F1223A
:10007900C2A2C2A3C2A4120003E50890008C93F5A2
:030089008080F381
:0300000002009C5F
:0C009C00787FE4F6D8FD75810802007939
:00000001FF
