:10008F00202808206C6F6E672061676F2074686589
:10009F007265207761732061206769726C206E61D1
:1000AF006D65642063717920202100202930207331
:1000BF0068652069732062757474657266756C2C3F
:1000CF006173206120726573756C742C7368652081
:0700DF0064696564202E0036
:0B015C00EF1FAC0670011E4C70F62275
:1000E700E4F55A1201487F80120167E4F559740854
:1000F7002559F8E6FF1201717F507EC312015CE5B6
:1001070059B40E057F071201670559E559C39428AD
:0701170040DCE4F55980CC47
:10011E00C2A58F807F017E0012012FD2A77F057EA0
:01012E0000D0
:10012F00D3EF9400EE9400400F7DC77C01DCFEDD21
:08013F00FAEF1F70EB1E80E8CF
:010147002295
:0A016700C2A7C2A612011EC2A72201
:0A017100C2A7D2A612011EC2A722E7
:100148007F061201677F381201677F0C1201677FF3
:040158000102016738
:03000000020003F8
:0C000300787FE4F6D8FD75815A02004AAF
:10000F000200E7E493A3F8E493A34003F68001F220
:10001F0008DFF48029E493A3F85407240CC8C333F2
:10002F00C4540F4420C8834004F456800146F6DFC1
:10003F00E4800B010204081020408090008FE47EC2
:10004F00019360BCA3FF543F30E509541FFEE493B6
:10005F00A360010ECF54C025E060A840B8E493A37D
:10006F00FAE493A3F8E493A3C8C582C8CAC583CAA8
:10007F00F0A3C8C582C8CAC583CADFE9DEE780BE60
:0100E6000019
:00000001FF
