:1001CC003F065B4F666D7D077F6F065B4F666D3F2D
:0E01DC00065B4F666D065B4F666D7D077F6F9D
:0C022200010D00010C00010E00010F0096
:1001EA00758000C2A2C2A3C2A4E50D9001CC93F50A
:0301FA00807F649F
:0701FD00AE071FEE70FA22AD
:10020400758901758CFC758A18D2A9D2AFD28C225B
:0E02140020B10A7F641201FD12020480FE2256
:03000B0002000EE2
:0F000E00C0E0C083C082C0D075D000C006C0075C
:10001D00758CFC758A180509E50970020508D3E58C
:10002D000B943BE50A9400407CE50A7042E50B24F5
:10003D00BA601D24F6601E24F6601F24F66020248D
:10004D00F6602124F66022243C7024750F00801F79
:10005D00750F01801A750F028015750F03801075CD
:10006D000F04800B750F058006750F00750E0112BC
:10007D0001EA758000D2A2C2A3C2A4E50F9001DBF4
:10008D001201F8758000C2A2D2A3C2A47580407F70
:10009D00641201FD758000D2A2D2A3C2A4E50E9018
:1000AD0001E193F580D3E50B9409E50A94004046F0
:1000BD00E50B943CE50A9400503CE50A7024E50BF1
:1000CD0024E2601124F6601224F66013241E7012CF
:1000DD00750C01800D750C028008750C038003757D
:1000ED000C041201EA758000D2A2C2A3C2A4E50CD1
:1000FD009001D693F580E509B4E82BE508B4032605
:10010D00050BE50B7002050AC2A2C2A3C2A47508B5
:10011D0000750900E50D9001CC93F580050DE50DF9
:06012D00B40A03750D0089
:0D013300D007D006D0D0D082D083D0E032EB
:03000000020140BA
:0C014000787FE4F6D8FD75810F0201877E
:10014C00020214E493A3F8E493A34003F68001F2B3
:10015C0008DFF48029E493A3F85407240CC8C333B4
:10016C00C4540F4420C8834004F456800146F6DF83
:10017C00E4800B0102040810204080900222E47EEF
:10018C00019360BCA3FF543F30E509541FFEE49378
:10019C00A360010ECF54C025E060A840B8E493A33F
:1001AC00FAE493A3F8E493A3C8C582C8CAC583CA6A
:1001BC00F0A3C8C582C8CAC583CADFE9DEE780BE22
:01022E0000CF
:00000001FF
