:100122003F065B4F666D7D077F6F777C395E797125
:010132007656
:040133007F0A7E00C1
:0B013700EF1FAC0670011E4C70F6229A
:10010800E50EC4540F90012293F508E50E540F93A1
:0A011800F509900132E493F50A2284
:1000CE00E4FDEDC394035031ED14600B1460102465
:1000DE00027012C2A28002D2A2C2A3C2A48006C221
:1000EE00A2D2A3C2A474082DF8E6F5807F647E0028
:0900FE00120137E4F5801D80C9F0
:0101070022D5
:09015900D2AFD288D2A8D2B222A2
:0B014E001201591201081200CE80F8C7
:03000300020006F2
:10000600C0E0C0D075D000C000C002C003C004C0AC
:0500160005C006C00753
:10001B007FBC7E0212013730B2030200BB750B00AE
:10002B00E4FBFA20B213C3EB9464EA9400500A1277
:10003B0001330BBB00010A80EA30B2747A007B00FB
:10004B0030B213C3EB9432EA9400500A1201330B13
:10005B00BB00010A80EA7A007B00E4FD75100020EA
:10006B00B213C3EB9406EA9400500A1201330BBB94
:10007B0000010A80EA30B20E120133050BE50BD3F7
:10008B00941E40F1802A740C2DF8C000E6C313D0E7
:10009B0000F6E50BD394084008740C2DF8E6448069
:1000AB00F60510E510C3940840B50DED640470AC73
:1000BB00D007D006D005D004D003D002D000D0D0CA
:0300CB00D0E03250
:03000000020142B8
:0C014200787FE4F6D8FD75811002014EB4
:00000001FF
