:100121003F065B4F666D7D077F6F777C395E797126
:0B013D00EF1FAC0670011E4C70F62294
:10000E00E4FDEDB40800504D90001DF82828730251
:10001E00003502003902004102004502004D020087
:10002E005102005902005DC2A28002D2A2C2A3C236
:10003E00A48022C2A28002D2A2D2A3C2A48016C2DF
:10004E00A28002D2A2C2A3D2A4800AC2A28002D2ED
:10005E00A2D2A3D2A474092DF8E6F5807F647E00A7
:0C006E0012013DE4F5800DED6408709671
:01007A002263
:10007B00E50875F00A84E5F090012193F509E50890
:10008B0075F00A8493F50A750B40E51175F00A8437
:10009B00E5F093F50CE51175F00A8493F50D750EEB
:1000AB0040E51275F00A84E5F093F50FE51275F053
:0600BB000A8493F51022F7
:10011100758901758CD8758AF0D2A9D2AFD28C229B
:1000F80020B1157F647E0012013D20B10B12011161
:0901080012007B12000E80F822A7
:03000B000200C12F
:1000C100C0E0C0D00513758CD8758AF0E513B4640F
:1000D100217513000508E508B43C177508000511E2
:1000E100E511B43C0D7511000512E512B418037544
:0700F1001200D0D0D0E03274
:03000000020131C9
:0C013100787FE4F6D8FD7581130200F819
:00000001FF
