:0701050002090000010800DF
:1000F200D3EF9400EE648094804007EF1F70F11EEE
:0301020080EE226A
:1000D800E50870097403250AF50AE4800874FE250A
:0A00E8000AF50A74FF3509F5092234
:10008F00D3E50A94BCE50964809482400A7509029D
:10009F00750ABC75080122C3E50964809480500776
:0800AF00E4F509F50AF5082249
:1000B7001200D812008FC2A0AF0AAE091200F2D206
:1000C700A0C374BC950AFF74029509FE1200F28062
:0100D700DF49
:03000000020003F8
:0C000300787FE4F6D8FD75810A02004AFF
:10000F000200B7E493A3F8E493A34003F68001F250
:10001F0008DFF48029E493A3F85407240CC8C333F2
:10002F00C4540F4420C8834004F456800146F6DFC1
:10003F00E4800B0102040810204080900105E47E4B
:10004F00019360BCA3FF543F30E509541FFEE493B6
:10005F00A360010ECF54C025E060A840B8E493A37D
:10006F00FAE493A3F8E493A3C8C582C8CAC583CAA8
:10007F00F0A3C8C582C8CAC583CADFE9DEE780BE60
:01010C0000F2
:00000001FF
