:10008900C2B6C2B5E4FEEFC4131313540124FF92A0
:10009900B4EF25E0FFD2B6C2B60EBE08E9D2B5C2AA
:0100A900B5A1
:0100AA002233
:10000300E4F508E508B40800506D900014F82828BA
:100013007302002C02003602004002004A02005420
:1000230002005E0200680200727F80120089758000
:100033007F80447F401200897580BF803A7F201201
:1000430000897580DF80307F101200897580EF8012
:10005300267F081200897580F7801C7F04120089AF
:100063007580FB80127F021200897580FD80087FF6
:10007300011200897580FE7580FF0508E508C394A9
:06008300084080020003AA
:030000000200AB50
:0C00AB00787FE4F6D8FD758108020003A0
:00000001FF
