:10004800C2A07F507EC3120069C2A07F507EC31237
:100058000069D2A07F507EC3120069D2A07F507E73
:01006800C3D4
:0B006900EF1FAC0670011E4C70F62269
:10000300120048C2A1120065C2A1120065D2A1125A
:100013000065D2A1120065C2A4120065C2A4120039
:1000230065D2A4120065D2A4120065C2A2120065B3
:10003300C2A2120065D2A2120065D2A212006512FA
:0500430000480200036B
:0300000002007487
:0C007400787FE4F6D8FD758107020003D8
:00000001FF
