:0A02CE003F065B4F666D7D077F6FF2
:0302E20001080010
:0402A7007F647E00F2
:0B02AB00EF1FAC0670011E4C70F62225
:1001740020B1101202A720B107AD087F0112027E40
:1001840030B1FD20B0101202A720B0077F01120287
:100194003C8F0830B0FD20B2151202A720B20C0526
:1001A40008E4B50806E4B40102F50830B2FD20B352
:0E01B4000C1202A720B303E4F50830B3FD22BD
:10020400E4FDED14600E14601314601424037016DE
:10021400C2A28002D2A2C2A3C2A4800AC2A2800245
:10022400D2A2D2A3C2A474092DF8E6F5801202A7C3
:07023400E4F5800DBD04CBD1
:01023B0022A0
:10000300AF087E007C037DE812011F7E007F64CF72
:10001300CDCFCECCCE12011FAA04AB057D0A7C0046
:10002300AF03AE0212011F74CE2DF58274023CF5AC
:1000330083E493F5097D0A7C00AF03AE0212011F2E
:1000430074CE2FF58274023EF583E493F50AE50836
:10005300FB7C037DE8FF7E0012011F7E007F64CFDF
:10006300CDCFCECCCE12011F74CE2FF58274023EBB
:10007300F583E493F50B7C037DE8AF037E00120167
:100083001F74CE2FF58274023EF583E493F50C22A0
:0B02C30012017412000312020480F507
:07029700D2A012029ED2A1C9
:08029E007F017E02DEFEDFFAA3
:0102A6002235
:0D02B600120297C2A012029EC2A102029E77
:0A02D800C2A0120299D2A002029EF9
:0201C200AD0787
:1001C400E4FBFA12029EEDC4131313540124FF92AC
:1001D400A0ED25E0FDD2A112029EC2A112029E0A48
:1001E400BA08E012029730A00F0BEBD394C840F684
:0F01F400C2A112029E7F0022C2A112029E7F01B1
:0102030022D8
:10025E00E4FDD2A0FCED25E0FDA2A0E4334205D2E0
:0F026E00A112029EC2A112029E0CBC08E8AF05AD
:01027D00225E
:10027E00AC05A9071202B67FA01201C2AF0112018E
:09028E00C2AF041201C20202D841
:02023C00AC070D
:10023E001202B67FA01201C2AF041201C21202B6A0
:0F024E007FA11201C212025EAD071202D8AF05E6
:01025D00227E
:0300000002009368
:0C009300787FE4F6D8FD75810C0200DADD
:10011F00BC000BBE0029EF8DF084FFADF022E4CCC4
:10012F00F875F008EF2FFFEE33FEEC33FCEE9DEC8D
:10013F00984005FCEE9DFE0FD5F0E9E4CEFD22EDD3
:10014F00F8F5F0EE8420D21CFEADF075F008EF2F1D
:10015F00FFED33FD4007985006D5F0F222C398FD0E
:05016F000FD5F0EA22AB
:10009F000202C3E493A3F8E493A34003F68001F2B2
:1000AF0008DFF48029E493A3F85407240CC8C33362
:1000BF00C4540F4420C8834004F456800146F6DF31
:1000CF00E4800B01020408102040809002E2E47EDD
:1000DF00019360BCA3FF543F30E509541FFEE49326
:1000EF00A360010ECF54C025E060A840B8E493A3ED
:1000FF00FAE493A3F8E493A3C8C582C8CAC583CA18
:10010F00F0A3C8C582C8CAC583CADFE9DEE780BECF
:0102E5000018
:00000001FF
