:07007E003F5B6D006E673966
:0B007300EF1FAC0670011E4C70F6225F
:10000300E4FDEDB407005046900012F8282873026F
:10001300002702002B02003302003702003F0200D8
:100023004302004BC2A28002D2A2C2A3C2A4801E7A
:10003300C2A28002D2A2D2A3C2A48012C2A2800210
:10004300D2A2C2A3D2A48006C2A2D2A3D2A4ED900C
:10005300007E93F5807F647E00120073E4F5800DCB
:03006300BD079F37
:010066002277
:0500850012000380FBE6
:0300000002006794
:0C006700787FE4F6D8FD75810702008563
:00000001FF
