:1000E9003F065B4F666D7D077F6F777C395E79715F
:03001300010A00DF
:10000300438910758DFC758B18D2ABD2AFD28E227B
:0B00F900C2A2C2A3C2A412000380FE3A
:03001B000200AA36
:0800AA00C0E0C083C082C0D099
:1000B200758DFC758B180509E50970020508B4E811
:1000C2001DE508B40318750800750900E50A9000DB
:0E00D200E993F580050AE50AB41003750A00EB
:0900E000D0D0D082D083D0E032F0
:0300000002001EDD
:0C001E00787FE4F6D8FD75810A020065C9
:10002A000200F9E493A3F8E493A34003F68001F2F3
:10003A0008DFF48029E493A3F85407240CC8C333D7
:10004A00C4540F4420C8834004F456800146F6DFA6
:10005A00E4800B0102040810204080900013E47E23
:10006A00019360BCA3FF543F30E509541FFEE4939B
:10007A00A360010ECF54C025E060A840B8E493A362
:10008A00FAE493A3F8E493A3C8C582C8CAC583CA8D
:10009A00F0A3C8C582C8CAC583CADFE9DEE780BE45
:0100160000E9
:00000001FF
